:100000000C942A000C943C000C943C000C943C0092
:100010000C943C000C943C000C943C000C943C0070
:100020000C943C000C943C000C943C000C943C0060
:100030000C943C000C943C000C943C000C943C0050
:100040000C943C000C943C000C943C000C943C0040
:100050000C943C0011241FBECFE5D8E0DEBFCDBF1D
:1000600020E0A0E6B0E001C01D92A037B207E1F7A2
:100070000E944A000C9488000C94000080E090E0FC
:1000800005C0FC01E05AFF4F1082019680319105B6
:10009000C4F3089580E884BF84BF80EF8ABB17BA99
:1000A0008FEF84BB0E943E0020E080E002C08D2FD5
:1000B000212FC9B3DC2FDF7016B3C3FF09C00E9424
:1000C0003E0087EA91E60197F1F700C0000016C0F4
:1000D000982F9D2792FF12C082FF0AC080FF08C0A0
:1000E000E22FEF70F0E0E05AFF4F22952F7020834F
:1000F00087EA91E60197F1F700C00000C1FFD7CF72
:10010000E12FEF70F0E0E05AFF4F808185BBCFCF49
:04011000F894FFCF91
:00000001FF
