S0140000636F6E74726F6C5F756E69742E73726563F0
S11300000C942A000C943F000C943F000C943F0085
S11300100C943F000C943F000C943F000C943F0060
S11300200C943F000C943F000C943F000C943F0050
S11300300C943F000C943F000C943F000C943F0040
S11300400C943F000C943F000C943F000C943F0030
S11300500C943F0011241FBECFE5D8E0DEBFCDBF16
S113006010E0A0E6B0E0EAECF0E002C005900D92EA
S1130070A038B107D9F70E9441000C9463000C9496
S1130080000080E884BF84BF80EF8ABB8FEF87BB0A
S113009084BB9FEF89B38F709817E1F399B39F7076
S11300A0E92FF0E0EE0FFF1FE05AFF4F208131816E
S11300B028BB2081318135BBE3EDF0E33197F1F7C3
S10D00C000C00000E7CFF894FFCF62
S11300CA0305010500094006030902098007000522
S11300DA02050800010906052100050504091100A5
S9030000FC
