:100000000C942A000C945D000C943E000C943C006F
:100010000C943C000C943C000C943C000C943C0070
:100020000C943C000C943C000C943C000C943C0060
:100030000C943C000C943C000C943C000C943C0050
:100040000C943C000C943C000C943C000C943C0040
:100050000C943C0011241FBECFE5D8E0DEBFCDBF1D
:1000600020E0A0E6B0E001C01D92A136B207E1F7A2
:100070000E946A000C9480000C9400001F920F9262
:100080000FB60F9211242F938F939F93809160004E
:1000900088BB2FE986E891E0215080409040E1F74D
:1000A00000C0000089B3809360009F918F912F91D1
:1000B0000F900FBE0F901F9018951F920F920FB6C2
:1000C0000F9211241092600018BA0F900FBE0F907B
:1000D0001F9018951ABA8FEF87BB80E88BBF8BB73C
:1000E00080648BBF85B7886085BF85B78B7F85BFF0
:1000F00085B7826085BF85B78E7F85BF7894FFCF37
:04010000F894FFCFA1
:00000001FF
