S01A0000496E737472756374696F6E5F4D656D6F72792E7372656390
S11300000C942A000C943F000C943F000C943F0085
S11300100C943F000C943F000C943F000C943F0060
S11300200C943F000C943F000C943F000C943F0050
S11300300C943F000C943F000C943F000C943F0040
S11300400C943F000C943F000C943F000C943F0030
S11300500C943F0011241FBECFE5D8E0DEBFCDBF16
S113006012E0A0E6B0E0E0ECF0E002C005900D92F2
S1130070A036B107D9F70E9441000C945E000C949D
S1130080000080E884BF84BF1ABA8FEF84BB87BBAB
S11300909FEF89B39817E9F399B3E92FF0E0EE0FD6
S11300A0FF1FE05AFF4F2081318125BB38BBE3EDB0
S11300B0F0E33197F1F700C00000EBCFF894FFCFE5
S11300C06F7013702E10272123A124E7133221B25D
S11300D021C3C09131D324621036611620366116D3
S11300E0A0912747218415016176206641526176EB
S11300F01066C09171C21091000000000000000061
S113010000000000000000000000000000000000EB
S113011000000000000000000000000000000000DB
S113012000000000000000000000000000000000CB
S113013000000000000000000000000000000000BB
S113014000000000000000000000000000000000AB
S1130150000000000000000000000000000000009B
S1130160000000000000000000000000000000008B
S1130170000000000000000000000000000000007B
S1130180000000000000000000000000000000006B
S1130190000000000000000000000000000000005B
S11301A0000000000000000000000000000000004B
S11301B0000000000000000000000000000000003B
S11301C0000000000000000000000000000000002B
S11301D0000000000000000000000000000000001B
S11301E0000000000000000000000000000000000B
S11301F000000000000000000000000000000000FB
S113020000000000000000000000000000000000EA
S113021000000000000000000000000000000000DA
S113022000000000000000000000000000000000CA
S113023000000000000000000000000000000000BA
S113024000000000000000000000000000000000AA
S1130250000000000000000000000000000000009A
S1130260000000000000000000000000000000008A
S1130270000000000000000000000000000000007A
S1130280000000000000000000000000000000006A
S1130290000000000000000000000000000000005A
S11302A0000000000000000000000000000000004A
S11302B0000000000000000000000000000000003A
S9030000FC
